:020000041000EA
:10000000002008205D0100101301001015010010F0
:100010001101001011010010110100101101001058
:100020001101001011010010110100101701001042
:100030001101001011010010190100101B01001026
:100040001D0100101D0100101D0100101D010010F8
:100050001D0100101D0100101D0100101D010010E8
:100060001D0100101D0100101D0100101D010010D8
:100070001D0100101D0100101D0100101D010010C8
:100080001D0100101D0100101D0100101D010010B8
:100090001D0100101D0100101D0100101D010010A8
:1000A0001D0100101D0100101D0100101D01001098
:1000B0001D0100101D0100101D0100101D01001088
:1000C0001D0100101D0100101D0100101D01001078
:1000D0001D0100101D0100101D0100101D01001068
:1000E0001D0100101D0100101D0100101D01001058
:1000F0001D0100101D0100101D0100101D01001048
:100100001D0100101D0100101D0100101D01001037
:1001100000BE00BE00BE00BE00BE00BEEFF3058004
:10012000103800BEF2EB8871904D0010C04D0010E9
:10013000A801001090A31AE7D3DEFFFF42012110AF
:10014000FF0100006C5A0000793512AB4FF000003F
:100150002049086006C881F3088810474FF05040D6
:10016000006810B14FF00000F2E70FA40ECC002998
:1001700002D000F015F8F9E71749184A002000E00E
:1001800001C19142FCD1002080F30A8814498847BC
:10019000144988471449884700BEFDE701C901C2D8
:1001A0009A42FBD3704700BFC04D001010010020E1
:1001B000F40E0020A45B00100000082000000820BE
:1001C000A45B0010001008200010082000000000B0
:1001D0007047000008ED00E0F40E0020B01C002085
:1001E000A91B001011030010A11B0010F8B500BFDF
:1001F000064B0749C91A891048BF0131491003D07D
:10020000044B0BB101481847704700BFF40E0020A3
:10021000F40E00200000000008B5054B1BB1054995
:100220000548AFF30080BDE80840FFF7E1BF00BF1D
:1002300000000000381C00207849001030B52F4B1A
:1002400085B01A68012A09D01A68022A2DD01A68C6
:10025000032A45D00020002105B030BD0C224FF00C
:10026000000141EC402002221A6000F04DFF0446DC
:1002700001F048F94FF0FF3E6FF0004C204A821821
:1002800041F1000396457CEB03010BD300211D4D8A
:10029000CDE901112046009500F03AFF0020002131
:1002A00005B030BD72466346F0E70D224FF0000105
:1002B00041EC402003221A6000F026FF044601F0C2
:1002C00021F94FF0FF3C6FF000450D4A821841F1D3
:1002D0000003944575EB03013CBF62462B46D5E70E
:1002E00000220B2142EC4010074908480A701A60AE
:1002F00001F0A0FD0020002105B030BD2418002031
:10030000C0C62D003D020010AC1C00207849001032
:1003100080B584B001F044FD4FF47A7001F06AF8C2
:100320000C2000F0B5F80C274FF0010444EC4470A9
:100330000D2000F0ADF80D2644EC44600B2000F0D9
:10034000A7F80B2544EC4450052000F0A1F84FF02D
:100350000004052044EC44000022012100F084F850
:1003600044EC407044EC406044EC4050294801F0BB
:1003700061FD294DDFF8AC90DFF8AC80274F284EA7
:1003800002E00A2001F036F82B78002BF9D14FF06B
:10039000504463689806F4D4322001F02BF8636867
:1003A0009906EED401220C212A701346C9F80020C8
:1003B00042EC40100D2243EC40200B2243EC402045
:1003C000384601F037FD00F09FFE044601F09AF830
:1003D0004FF0FF3E6FF0004C821941F1000396454B
:1003E0007CEB03014FF0000120464FF050443CBF2E
:1003F00063467246CDE90111CDF8008000F088FE19
:1004000063689A06BDD40A2000F0F4FF63689B0677
:10041000F9D5B6E790490010AC1C0020B449001093
:10042000C0C62D00241800203D02001010B44FF467
:1004300080740C4B53F8202003EB8003C00082F043
:10044000400200F1804003F5805C02F0C00200F53C
:10045000203003F54053CCF8002041601C605DF86B
:10046000044B70470480034010B4084CC90041EAB3
:10047000820154F8202004EB8003514003F580539F
:1004800001F00C015DF8044B1960704704800340D3
:1004900030B44FF0000343EC440043EC400005252A
:1004A0004FF480740B4BC20053F8201003EB800014
:1004B00081F0400102F1804303F5203301F0C002D6
:1004C00000F5805100F540500A605D60046030BC6A
:1004D000704700BF048003400FB400B583B0049C94
:1004E000074801F0A7FC3CB105A92046019101F0A5
:1004F0003DFB044801F09EFC012001F04FFB00BFD2
:10050000C8490010D849001070B58646EFF3108531
:1005100072B6124CD4E8CF6F0120002EFAD1C4E895
:10052000460F002EF6D1BFF35F8F4FF0010CC808C5
:1005300001F007030CFA03F31EF800C01CEA0306DF
:1005400008D14CEA030C0EF800C0C4E88F6F85F3A5
:10055000108870BD1046FFF7BFFF00BF6F1300206B
:10056000F8B5EFF3108572B6234CD4E8CF7F01269F
:10057000002FFAD1C4E8476F002FF6D1BFF35F8F89
:100580009A4227D80126D70810F807E002F0070C96
:1005900006FA0CFC1EEA0C0F00EBD2070DD125E089
:1005A0004FEAD20E10F80EE002F0070C06FA0CFC2F
:1005B0001EEA0C0F00EBD20718D001329342EFD2A3
:1005C0004FF0FF300023C4E88F3F85F31088984236
:1005D00007DBF8BD0023C4E88F3F85F310884FF098
:1005E000FF300029F5D00698FFF776FF4EEA0C0E93
:1005F000104687F800E0E5E76F130020044A107802
:10060000431CDBB2182B28BF10231370704700BFA8
:10061000380E002010B5054C82B001461F23182269
:1006200000940348FFF79CFF02B010BDDC490010A6
:10063000C41700204FF0E022936843F0005393600A
:10064000704700BF0021044B03F12002C3E88F1F55
:1006500001339342FAD17047641300204FF0E02336
:100660004FF08032C3F80024C3F80424C3F80824F0
:10067000C3F80C24C3F81024C3F81424C3F81824B6
:10068000C3F81C24C3F82024C3F82424C3F8282466
:10069000C3F82C24C3F83024704700BF012300F0B6
:1006A0001F029340400941B1800000F1604000F515
:1006B0006140C0F8803103607047024A203042F840
:1006C0002030704700E100E00123064A410952F85A
:1006D000212000F01F008340134214BF012000209E
:1006E000704700BF00E100E001224309034900F028
:1006F0001F008240403341F82320704700E100E0B2
:10070000064B10309B6853F8200028B1044BC01AE8
:100710002F288CBF00200120704700BF00ED00E0B3
:100720003C0E0020F8B50D46EFF3108772B6124E5E
:10073000D6E8CF2F0123002AFAD1C6E8423F002A8B
:10074000F6D1BFF35F8F0D4B00F110049B680C4A8C
:1007500053F82430934203D0994201D001F012F9AA
:10076000064B9B6843F82450BFF35F8F0023C6E815
:100770008F3F87F31088F8BD6D13002000ED00E077
:100780001D0100102DE9F04F81468B46164683B0BF
:10079000EFF3108372B6DFF8D0A10093DAE8CF1F31
:1007A00001230029FAD1CAE8413F0029F6D1BFF35D
:1007B0005F8F664B93F90040002CC0F2A080644D1F
:1007C00004EB440705EB870898F8061009F11009B7
:1007D0001970604BBF009B6853F829006300411BF0
:1007E0002F292FD95C49884240F0A4801C445B4BE0
:1007F00002372F44043BDB1BC3F34A036FEAC343B6
:100800004FF421416FEAD34325F8241005EB84040B
:1008100063804BF60153A380FF2348F00100E6718B
:10082000C4F808B0A3714B4B9B6843F82900BFF391
:100830005F8F0023CAE88F3F009B83F3108803B0CB
:10084000BDE8F08F20F0010E9EF80710B1422ED8BF
:100850004FF42143EB53414BB91C2944043B04376B
:100860005B1A2F44AEF104013D4CC91BC1F34A0190
:100870002143A8F80410C3F34A033A492343A8F8D4
:1008800002304AF6AA2073465B1B5B415843000DB9
:1008900088F8076088F80600C8F808B048F001003A
:1008A000CEF80010BFE7D179B1422ED996469EF915
:1008B00006C00CEB4C02BCF1000F05EB8202F2DA31
:1008C0004BF601510EF10402A8F10407BF1AC7F359
:1008D0004A076FEAC7476FEAD7478EF8064003EB2F
:1008E0000408204C05EB8803AEF8047045F8284056
:1008F000998083F806C0DE71C3F808B093E701F071
:1009000041F8124B93F9004059E7724632F8041F40
:10091000490514D44915023102EB410101916FF0F0
:100920000701C91B019F491B3944C1F34A0141F426
:100930006041C9E7019301F025F8019B56E701F5F5
:10094000FF1101F5FF511F31E4E700BFA81C002093
:100950003C0E002000ED00E01D0100106C0E002098
:1009600000E0FFFF014880476D1300202DE9F04FA4
:1009700083B0EFF3108A72B6744ED6E8CF2F0123FE
:10098000002AFAD1C6E8423F002AF6D1BFF35F8FB2
:100990006F4B00F110089B686E4A53F8285095423F
:1009A0003FD08D420C464AD06B4FEB1B2F2B38D8D3
:1009B00001214FEA50194FEA890909F1604909F507
:1009C000614900F01F0301FA03F0D9F80030C9F8BB
:1009D000800000EA030BBFF35F8FEFF30581C9B21C
:1009E00079B3884577D125F0010EDEF808C064455B
:1009F00005D17CE0D3F808C0644532D09E469EF90C
:100A0000062002EB4203002A07EB8303F2DA644577
:100A100000F08180BBF1000F20D0C9F88001C9F837
:100A200000004B4B9B6843F82850BFF35F8F0023B7
:100A3000C6E88F3F8AF3108803B0BDE8F08F1546F3
:100A4000EFE725F0010EDEF808C06445D7D19EF926
:100A500006407346002C08DA154666E0C9F88000A7
:100A6000DFE793F90640002C56DB04EB440C07EB60
:100A70008C0CDCF8082061009A609CF80720DA7181
:100A80009CF90620002A9A715DDBBCF8042052050F
:100A900004D502F5FF1202F5FF521F32521502F182
:100AA000020C4FF0040E0C2212FB04E202EB4C028B
:100AB0006FF0070C3A44ACEB030C6244C2F34A02F9
:100AC00042F460429A80254B21441A7807EB810159
:100AD0001C708A719EE7CDE9000100F053FFDDE94B
:100AE000000125F0010EDEF808C0644587D19EF9AB
:100AF00006407346002CB8DA194A1A4CD21A083A42
:100B0000C2F30A316FEA01516FEA115144EA52020D
:100B1000DA8099807EE773460029EDD1FF228EF8B6
:100B200006204BF60152AEF804200C4C4AF6AA22DD
:100B300094F800C01946C91B49414A43120D83F875
:100B400006C0227066E74BF60152BBE76D1300202A
:100B500000ED00E01D0100103C0E0020A81C00204C
:100B6000760E002000F8FFFFF0B5EFF30585EDB23B
:100B7000EFF3108C72B62649D1E8CF2F0123002A5B
:100B8000FAD1C1E8423F002AF6D1BFF35F8F214E70
:100B900040F0010EB4684AF6AA2354F825701E4AA4
:100BA0000446A41A644163431B0D77455BB21BD016
:100BB00092F906409C421CD092F912409C4223D0EC
:100BC00092F91E409C4221D092F92A409C4208BFD3
:100BD00003240FD0114A0024157813708571C1E8E1
:100BE0008F4F8CF31088F0BDB2680D4C42F8254051
:100BF000F0E7002404EB440402EB8402FF24947128
:100C00004BF601549480E5E70124F3E70224F1E771
:100C10006D13002000ED00E03C0E0020A81C002019
:100C20001D01001010B5074C82B0014605230022BB
:100C300000940548FFF794FC0028A8BFC0F13300DA
:100C400002B010BDF8490010AD1C0020014B0B4450
:100C5000036070476413002070B5104C104DAC4217
:100C60000ED2FF26236863B1FFF7C8FC0146204679
:100C7000FFF7ECFFA680BFF35F8F0834AC42F1D3DF
:100C800070BDFFF7BBFC01462046FFF7DFFF267172
:100C9000BFF35F8F0834AC42E4D370BDEC0E00208C
:100CA000F40E002010B50446FFF7A8FC01462046CC
:100CB000FFF7CCFFFF232371BFF35F8F10BD00BF91
:100CC00010B504460120FFF7A5FC034B0344236045
:100CD000BFF35F8F10BD00BF64130020024B0B44B5
:100CE0000360BFF35F8F7047641300200D4B1A68D9
:100CF000EFF3108172B6D2E8CFCF0120BCF1000F24
:100D0000F9D1C2E84C0FBCF1000FF4D1BFF35F8FF3
:100D100000221B68C3E88F2F81F3108840BF00209A
:100D200000217047801C00202DE9F04F2DED028B33
:100D300085B0EFF30583DBB2103B9A0818BF0122A0
:100D40004FF0010103F0030018BFAB4DAB4B08BFE0
:100D5000AB4D00EB820201FA00FB53F8226005F56F
:100D600041539FEDA38B0190C3F804B0CDF800B0C0
:100D70002AE0B388180440F18C80B379002B40F04E
:100D8000D580B6F908100029C0F21581736901EB0E
:100D9000410103EBC103D3E90247B7F1FF3F08BFAD
:100DA000B4F1FF3F09D0019B05EB8301AB6A0A69EF
:100DB000D21AE31A934238BF0C61284600F09AFB1E
:100DC000A042B941C0F2F780B6F90840009B002C60
:100DD000EB63CEDBD6F8149004EB440A284609EB0B
:100DE000CA07D7E902B800F085FB584571EB080146
:100DF000BFDBB8F1000FC0F2C180D7E90431814AEE
:100E0000934200F0EA807A88B6F9080092B242EA8A
:100E10000040984702460B4652EA030100F0AE80BC
:100E2000002B80F2CE80BBEB020B68EB030839F994
:100E30003A30C7E902B8002B9BDB716903EB430230
:100E400001EBC202D2E90270BB4578EB000C4FEA1D
:100E500043028EDBB4462CF8083F0BE031F9323008
:100E6000F446002B0DDB03EB430001EBC0005A00FE
:100E7000D0E90270BB451A4478EB000001EBC20ECA
:100E8000ECDA29F83A30ACF80040B38818043FF5A2
:100E900074AF3369EFF3108272B6D3E8CF0F01213C
:100EA0000028FAD1C3E8401F0028F6D1BFF35F8FB6
:100EB0004FF6FF74B0880023316900B2B480C1E8F6
:100EC0008F3F82F310889842FFF657AF0746A94636
:100ED000746906F1080807EB470E04EBCE03D3E96B
:100EE0000250B6F90830C446002BA8BFB34605DA55
:100EF0000FE034F93A309446002B09DB03EB430A48
:100F000004EBCA02D2E90261B54270EB0101F0DAEA
:100F10005E46ACF8007034F93E7024F83E30002F85
:100F2000D9DAB3794D46002B3FF42BAF0023B371D0
:100F3000B6F9083006F10808591C3CD01946776903
:100F400003E080465A1C3FF41EAF03EB430207EB5D
:100F5000C200B0F802C01C461CF4004F9E4637F990
:100F60003230EED08C4280ED028B05D0A8F80030F4
:100F7000318927F8321034817146E3E739F83A3085
:100F800033813369EFF3108272B6D3E8CF0F0121BA
:100F90000028FAD1C3E8401F0028F6D1BFF35F8FC5
:100FA0007388316929F83A3000237480C1E88F3F93
:100FB00082F31088DDE640BF05B0BDEC028BBDE8D2
:100FC000F08F2846CDE9022300F094FA029A039BA1
:100FD00010EB020B43EB010829E708460B6902916D
:100FE00098470028CAD00299D1E9002314E700BF2E
:100FF000FFFFFFFFFFFFFFFF00800B40581C00209A
:1010000000000B40290D00102DE9F84F364C2569E2
:101010002DB1BDE8F84F0A213448FFF717BEDFF8BD
:10102000E4800321404600F053FA0326C4F80C8004
:10103000FFF7E4FA4FF0504C2D4B26700344236128
:10104000DCF800300F216370636961801D834FF00D
:101050000405A3F878504FF00505A3F890504FF021
:101060000605A3F8A8504FF007050E214FF6FF72B2
:1010700008274FF00A0EA3F8C0504FF001094FF0B7
:101080000C0C4FF0020B4FF0090A0D204FF00B052E
:10109000A3F868111749A280A3F808E1A160A3F89A
:1010A00048B0A3F8F0A0A3F82051A3F838C1A3F8E2
:1010B0005001A3F83090A3F86060A3F8D8701A80AC
:1010C0000D4B3046C8F820700C49DC60FFF72AFB56
:1010D00049463046FFF7E2FA094B0A211F640348EC
:1010E000BDE8F84FFFF7B2BD840E0020801C002041
:1010F00064130020FFFF1000581C0020290D001071
:1011000000200B4000000B4000487047840E002078
:10111000F8B59DF82070044616461D4637B900F014
:10112000F1F9864265EB010100295CDB2369EFF3ED
:10113000108772B6D3E8CF1F01220029FAD1C3E885
:10114000412F0029F6D1BFF35F8FB4F902C0636964
:101150000CEB4C01BCF1000F4FEAC10203EBC101E3
:1011600038DB985A4FF0000E60802069C0E88FEF9E
:1011700087F310880698C1E90265086107984861FD
:1011800048880130C0F30E00012838BF0120488094
:1011900040EA0C402169EFF3108572B6D1E8CF7FA9
:1011A0000126002FFAD1C1E8476F002FF6D1BFF317
:1011B0005F8FA1889952A4F804C02369C3E88FEF18
:1011C00085F310880122E368217803F501538A40F2
:1011D0005A60F8BD00232269C2E88F3F87F3108868
:1011E0004FF0FF30F8BD3846F8BD00BF0146F0B5FE
:1011F0000069EFF3108772B6D0E8CF5F0124002DAD
:10120000FAD1C0E8454F002DF6D1BFF35F8FB1F999
:1012100002E04C690EEB4E0CBEF1000F4FEACC051C
:1012200004EBCC0C3DDB605B002648800869C0E81D
:101230008F6F87F31088BCF80200CCE902230130DD
:10124000C0F30E00012838BF0120059BACF8020056
:10125000CCF81030069B40EA0E40CCF814300B69F5
:10126000EFF3108272B6D3E8CFCF0127BCF1000FA5
:10127000F9D1C3E84C7FBCF1000FF4D1BFF35F8F0D
:101280008B886353A1F804E00B69C3E88F6F82F386
:1012900010880122CB68097803F501538A405A600F
:1012A000F0BD00230A69C2E88F3F87F310884FF032
:1012B000FF30F0BD03464089B0EB214F37DD586960
:1012C0000A1402EB420210B500EBC2001C69EFF3F6
:1012D000108C72B6D4E8CFEF0122BEF1000FF9D125
:1012E000C4E84E2FBEF1000FF4D1BFF35F8F4288E8
:1012F00089B292B28A4207D000221B69C3E88F2FBD
:101300008CF31088002010BD42F40042428001217D
:10131000002218699971C0E88F2F8CF310881C780F
:10132000DA68084602F50153A140596010BD00205B
:10133000704700BF407870472DE9F041861F41F1AA
:10134000FF35B04271EB050338BF002682B038BFCD
:10135000354604460F4600F0D5F8301A65EB010318
:10136000012873F1000306DA2046394602B0BDE8D1
:10137000F04100F003B900F0C5F8864265EB0101C9
:1013800000290ADB0021174B3246009316482B46F2
:101390000191FFF72BFF0028E6DB4FF0000C13480C
:1013A000134A436A9D4204D8816AB142DCD29D420D
:1013B000DAD11368EFF3108172B6D3E8CF8F5FF004
:1013C000010EB8F1000FF8D1C3E848EFB8F1000FF3
:1013D000F3D1BFF35F8F1368C3E88FCF81F3108819
:1013E00020BFDEE7ED0C0010840E002000000B4053
:1013F000801C002010B5044600F084F84FF47A7386
:101400004FF0FF3C6FF00042E4FB0301BDE81040E9
:10141000844572EB01033CBF60461146FFF78CBF69
:10142000F0B506460D4683B0EFF30584E4B2002C18
:1014300035D1244F3A78F96804328B6A51F822206A
:10144000D21AC31A934207D320BF1F4B586AA8422F
:101450001FD2002003B0F0BD00F054F8864265EBC7
:101460000101002911DB194B3846CDE90034324621
:101470002B46FFF7BBFE011E07DD134B5A6AAA423B
:1014800019D220BF0F48FFF715FF0F4B586AA8422B
:10149000DFD39B6A9E4209D8012003B0F0BD0A4BFE
:1014A000586A8842D5D39B6AB342F5D2401B18BF15
:1014B000012003B0F0BD9B6A9E42E3D9AA42E1D16C
:1014C000DFE700BF840E002000000B40ED0C001091
:1014D00010B4054B054C064AA04214BF1846581CD0
:1014E0005DF8044BFFF710B8C817002000800B40D0
:1014F000144A00100346416A0A46986A596A8A42A9
:10150000FAD17047034B596A0A46986A596A914260
:10151000FAD1704700000B4010B4174A536A9C463A
:10152000946A536A6345FAD1001959414FF0000299
:1015300028BF01220346CAB10F4B596A4B1C08BF92
:101540000B4608D04FF0FF310B460B48426A8A42E7
:10155000FCD38A4207D1084A02E0506A884202D18D
:10156000906A9842F9D35DF8044B7047024A526A78
:101570009142EAD8EDE700BF00000B40074A536AEA
:101580009942FCD8994207D1044B02E05A6A914231
:1015900002D19A6A8242F9D3704700BF00000B4023
:1015A000F8B5054606200E4600F0E4F8002842D0C3
:1015B000354A3648954214BF4FF080624FF00062C2
:1015C000334B344902601A608C6832EA0404FBD160
:1015D0002D4B4FF48071EB1AB3FA83F32E4A5B095B
:1015E000062022F8131000F0C5F8C300B3FBF6F391
:1015F0000133DA0920D1402601216962AA622F6BEA
:10160000FB0722D42B46002253F82C1F062003F59B
:10161000805422602F6300F0ADF840F201310322C4
:101620008000B0FBF6F0EB6A83F0700303F07E03FA
:1016300023602963AA64F8BD4FF6FE718A421BD964
:1016400022464FF6FF71154ED7E740F2013205F5FD
:1016500040531A636B6AAC6A062004EB831400F0F3
:1016600089F80F4BA402A3FB0023DB0A0021B4FB83
:10167000F3F0FFF751FFC5E7C3F34503114603EB52
:1016800082161A46B9E700BF0080074000200240DA
:1016900000300240000002408C1C0020C0FF3F00D0
:1016A000757B2B8F00EB400C4FEA8C0C0CF1804CBF
:1016B0000CF5803CF0B51646DCF80420051FB2F5A9
:1016C000803F38BF4FF48032EDB238BFCCF80420F1
:1016D000012D2AD94FF40067254C0CF540521760B4
:1016E00054F82020B2B9DCF80020012D82EA46121D
:1016F00002F0E0020CF5805632602AD94FF4006106
:1017000044F820304FF480330CF500521160CCF8CF
:101710000430F0BD6769B7FBF2FE0EF1010E0EEB6F
:101720004E0EBEF1030EFCD2DDE70129D2D1032417
:101730000CF540521460DCF80820D207FBD5DCF829
:1017400000200B4C82EA461202F0E0020CF58056B3
:1017500032600122DCF800504D4005F00305356091
:1017600002FA01F1DCF808200A42FBD0C6E700BF0C
:10177000CC170020014B53F820007047CC170020F5
:1017800070B4039D04682D0345EA03451B4B002CF0
:10179000B3FBF1F3B2FBF3F61FDB194A194B90428E
:1017A00014BF4FF480424FF40042174C1A6003F507
:1017B00080531A60A36832EA0303FBD1212200F5AB
:1017C00040530433016086601A600268002AFCDA24
:1017D0000822C5601A6070BC7047036803F03F03BD
:1017E0008B42DAD18368C3F30B03B342D5D1C3680C
:1017F00003F4EE23AB42D0D1EDE700BF001BB700EE
:1018000000800540002002400000024030B44FF04C
:1018100080441C4B1C60E0B11B4CA3F54053DC61C1
:101820001A4C40F0010044401C62596298624FF02B
:1018300080454FF0E061134B1548164C1D608460E5
:1018400019604AB930BC4FF00042A3F580531A60CA
:101850007047114BD861EAE74FF47A7303FB02F249
:10186000B2F1807F2ABF6FF07F4313461A464FF0D4
:1018700080410A4C08482360094B426030BC196023
:10188000704700BF00B00D40D3C007B02D3FF84FE8
:1018900000A00140F3FFFF0100800D40301C00203C
:1018A00000A00D40012300EB4000800000F18040CB
:1018B00000F5841041600360704700BF002370B5DD
:1018C000DB8A04460D46002242E800F2520254BF71
:1018D0001021042144F25220984786462B46224686
:1018E000F446BDE870400A214FF48170604700BFA4
:1018F0000023DB8A002242E800F2520201D41021C8
:1019000018470421184700BF08B503460846191EAA
:1019100002DB1AB140F03000FFF7D0FF40F02000AA
:10192000FAE700BF034AD2F82838002BFBD0BFF3F8
:101930005F8F704700000E400021044B044ABFF344
:101940005F8F43F8041B9342F9D170470C080E4097
:101950002C080E4010B42F204FF42A64054A064B81
:1019600006491460D06019605368002BFCDA5DF8FA
:10197000044B70470080044000A0044000B0FA000F
:10198000704700BF08B50148FEF7A6FD384A0010B1
:1019900038B5054C054DAC4204D254F8043B984789
:1019A000AC42FAD338BD00BF304900107049001076
:1019B00010B40748074C084B084A094904601A60EC
:1019C0008B6832EA0303FBD15DF8044B704700BF1C
:1019D000002002407F3BEFEF00300240F6FFF303B0
:1019E00000000240044BDB6CB3F5004F03D14FF411
:1019F0008022024BDA647047000011500020115021
:101A00004FF0E022044BD2F8881D0B43C2F8883D0A
:101A100010EE3004704700BF030330006FF06041E8
:101A2000044B054A19609368DB4333F06043FAD1F5
:101A3000704700BF003002400000024010B545F280
:101A40005320FFF755FFBDE8104003460420184718
:101A500010B545F25320FFF74BFFBDE81040034699
:101A600001201847FEF7EEBD10B5054B054C4FF4AD
:101A700088721846A16802F091FEA06010BD00BFF8
:101A80000000002000ED00E0002370B52B4C82B078
:101A9000C4F88430FFF75EFF0122294BDA63636CE0
:101AA000012BFCD10321264A244B11639C6B012C92
:101AB000FCD10226052521460523224A224800960C
:101AC000FFF75EFE21462B46204A21480095FFF78E
:101AD00057FE0022042031461E4BFFF7E3FD21464E
:101AE000284600221C4BFFF7DDFD0022082011468E
:101AF0001A4BFFF7D7FD002209201146174BFFF7BD
:101B0000D1FD002206201146134BFFF7CBFD00222A
:101B1000114B07201146FFF7C5FD0420FFF72AFEF1
:101B200000240F4BA3FB0035AD0CE0B22946013475
:101B3000FFF7B8FE062CF8D102B070BD00000140DE
:101B400000300140002F685900000540008C864796
:101B500000800540001BB70080D1F008006CDC025B
:101B600083DE1B4300B9704700F022B910B5094B62
:101B700084B01C684CB1034600914FF0FF3203A9BA
:101B80000548A047012004B010BD00F053F92046DD
:101B900004B010BD2C1C0020651B001000BEFDE72A
:101BA00008B5FFF7FBFF00BF38B5064C064DFFF741
:101BB000EFFEAC4204D254F8043B9847AC42FAD34F
:101BC00038BD00BF7049001078490010036808460E
:101BD00011461847437D2DE9F04781460F461646CA
:101BE000002B43D0002A3BDD037D00204D1E014623
:101BF00015F8012FDFF884800A2A01F101040ED0C4
:101C0000A6421CD02B782146A3F10D03B3FA83F32F
:101C100015F8012F5B090A2A01F10104F0D1002B0C
:101C2000EED18142A1EB000138441BDC0221404689
:101C3000D9F800309847A64208D02046E2E786420D
:101C400004DD311AD9F8003038449847374417F882
:101C5000013CA3F10D03B3FA83F35B0989F8143057
:101C6000BDE8F087D9F800309847DFE73846D9F863
:101C700000301146BDE8F047184700BFB04B0010D8
:101C80002DE9F04782B00D46924699460746FFF788
:101C900039FC4FF0FF366FF000442F4A821841F1B3
:101CA0000003964274EB03013CBF324623462B48A7
:101CB00002F032FE6B1C804603D1384602F0E4FD90
:101CC0000546274B274E1C68274BB9F1000F18BF5C
:101CD0001E46B4B1BAF1000F1AD1DFF8909001E0BE
:101CE000246974B12368002BFAD0D9F800300BB105
:101CF0009C42F5D120462A463946B0472469002C3B
:101D0000F0D1B8F1000F1FD1284602B0BDE8F0872E
:101D10004FF00A0ADFF8549002E02469002CF0D05A
:101D20002368002BF9D0D9F800300BB1A342F4D1CD
:101D30002A4639462046B047012220460DF10701C8
:101D40008DF807A0B047E8E7044802F0D5FD284623
:101D500002B0BDE8F08700BF40420F00EC0E00204B
:101D60001C180020CD1B0010D51B001028180020C7
:101D70000A4A13684BB1834202D109E0984207D066
:101D800003F110021B69002BF8D101B110607047FC
:101D90000029FCD103691360016170471C18002001
:101DA00008B500F035F900F06BFB012008BD00BF5D
:101DB000F0B583B006468DF80700FFF7A3FB4FF0A0
:101DC000FF356FF00044174A821841F10003954235
:101DD00074EB03013CBF23462A46134802F09CFDE6
:101DE000124B07461C689CB1114D01E024697CB17F
:101DF0002368002BFAD02B680BB19C42F6D1204609
:101E000001220DF10701FFF7E5FE2469002CEFD157
:101E100017B9304603B0F0BD034802F06DFD3046FF
:101E200003B0F0BD40420F00EC0E00201C18002053
:101E30002818002038B5044602F026FD0123054687
:101E40001A4620462946FFF71BFF084B1C682CB199
:101E500063682BB198472469002CF9D1284638BD16
:101E60002469002CF4D1284638BD00BF1C1800207E
:101E7000B1F1000C1DDD0F4A0F4B126830B5D31ABB
:101E8000B3FA83F30D240D4D5B09411E35F913E0C0
:101E90008C4411F8010F864506D093699B06FCD44B
:101EA00061451060F5D130BD93699D06FCD4146086
:101EB000F3E77047901C0020008007408C1C002036
:101EC000224BB1F1000C10B41C682EDD034600203B
:101ED0001F4A591E12689369DB0617D401309369B3
:101EE000DB06FCD41368844501F8013FF3D14CB103
:101EF00050211346916353F8342F02F0380203F552
:101F000080531A6060465DF8044B70474CB1502115
:101F10001346916353F8342F02F0380203F58053CF
:101F20001A6078B15DF8044B70475CB1084B5021E2
:101F30001A681346916353F8342F02F0380203F500
:101F400080531A606FF00200ECE700BFB417002066
:101F5000901C0020054B1B6833B10021044A054842
:101F60001268006891631847704700BFB4170020DB
:101F7000901C0020BC170020024B1A6893691B07B5
:101F8000FCD47047901C0020F8B51C4F1C4D3A68DB
:101F90001C4EAA4214BF212522250446D6F800C0B3
:101FA00018B1BCF1000F10D0F8BDBCF1000FFBD090
:101FB000014690632846FEF771FB28461249FEF75A
:101FC000D5FC124B34601C60F8BD0B460F4A0E491D
:101FD000306028461360FEF7A5FB01212846FEF776
:101FE0005DFB3A6850211346916353F8342F02F099
:101FF000380203F580531A60F8BD00BF901C002022
:1020000000800740B4170020551F0010BC170020A7
:1020100010B50E490E4C0F480F4A104B0078216046
:102020000020022112781B78FEF700FA022101201D
:10203000FEF7FCF94FF4E1312068FFF7B1FABDE893
:10204000104001210648FFF793BE00BF0000074083
:10205000901C0020B84D0010B44D0010B04D001081
:102060009C0E0020704700BF0022014B1A70704781
:10207000A91C00204B79FF2B0BD1887948B9CB796B
:10208000012B07D1082A05D9034B8A7809201A7039
:1020900070470020704700BFA91C00200120704736
:1020A000012901D00120704708B5104B91881B7899
:1020B000994201D0002008BD5378012B08D0022B93
:1020C000F8D1002164220846FFF7A0FB012008BDDB
:1020D0005188CB054BBF4A0A4A0A10464FF0FF30E1
:1020E00002F0010201F07F01FFF70EFCA91C0020A5
:1020F00000487047984C0010012907D15378012BF4
:1021000002D19388072B03D000207047012070472D
:102110001146A623014A01F02FBA00BFF04B001070
:102120000346012201481A70704700BFD04B0010CF
:1021300008B50B68B3F5966F00D008BD00224FF0CC
:10214000FF301146FFF7E0FB024A034B10601960B5
:10215000704700BFB8170020C0170020184B70B59B
:102160001A68002A28D0EFF3108172B6D2E8CF4F58
:102170000120002CFAD1C2E8440F002CF6D1BFF3A5
:102180005F8F00220F4C186859602270C0E88F2FB3
:1021900081F31088002400250B4E3078FEF794FA66
:1021A00020B9002400252046294670BD3078FEF76E
:1021B0009BFA2046294670BD4FF47A740025EBE760
:1021C000501C0020AB1C0020AA1C0020014B1878DA
:1021D000FEF78ABAAA1C002038B5044600200D4636
:1021E00001F0ECFAA8B3002001F0FEFA88B3FFF783
:1021F00089F94FF0FF3E6FF0004C174A821841F109
:10220000000396457CEB03013CBF724663461348CE
:1022100002F082FBE8B1002001F0D0FA58B90021A9
:102220004FF0FF3000F000FD6FF002040B4802F0A9
:1022300063FB204638BD002001F0D6FA0028EED01E
:1022400021462A46002001F0DBFA04460028EDD1A1
:10225000EAE76FF00204ECE740420F00841C002024
:1022600008B5FFF74FF94FF0FF3E6FF0004C0F4AF3
:10227000821841F1000396457CEB03013CBF724696
:1022800063460B4802F048FB70B14FF0FF3000216D
:1022900000F0CAFC002001F0FBFA0028F5D1BDE8EF
:1022A0000840034802F028BB08BD00BF40420F00B1
:1022B000841C00202DE9F84307460E46FFF722F95B
:1022C0004FF0FF356FF00044334A821841F10003AC
:1022D000954274EB03013CBF2A4623462F4802F087
:1022E0001BFB08B9BDE8F883002001F067FA00285D
:1022F00048D0002E41DD0025DFF8A480DFF8A4904F
:1023000013E02246002001F009FB002104464FF0B3
:10231000FF3000F089FC002001F0BAFAFFF7F2F874
:10232000C8E900012544AE4227DD002001F016FB7C
:10233000741B8442A8BF04467919002CE1D12146C0
:102340004FF0FF3000F070FC204601F0A1FA20466B
:1023500001F034FA88B1204601F000FB0028E2D1F8
:10236000FFF7D0F8D8F80030D8F8042013EB0903B1
:1023700042F1000283428A41D5D20848BDE8F843C1
:1023800002F0BABA00200021054BC3E90001BDE804
:10239000F843024802F0B0BA40420F00841C00200B
:1023A0004013002020A1070030B5002185B02E4841
:1023B00002F0BAFAF0B92D4B1A68CAB1EFF31081E6
:1023C00072B6D2E8CF5F0124002DFAD1C2E8454FA2
:1023D000002DF6D1BFF35F8F254C1D682278596020
:1023E000D3B201222270C5E88F0F81F31088CBB1E0
:1023F00005B030BD00214FF0FF3000F015FC00208B
:1024000001F0F2F90446184802F076FA002CEFD0F9
:10241000184B1B68002BEBD0174A106805B0BDE8BD
:1024200030401847FEF770FE0446FFF76BF84FF098
:10243000FF3C6FF0004510F57A7241F100039445BE
:1024400075EB030138BF2B464FF000014FF001053B
:1024500020460A4C38BF6246CDE901150094FEF7CC
:1024600057FE05B030BD00BF841C0020501C00206A
:10247000AB1C0020B8170020C01700205D21001001
:102480004FF0504330B585B01C68FEF73DFEFEF7B7
:1024900051FFA04202D0002005B030BD294B1B786F
:1024A00001F02EFD28480368002B47D00120FEF7DD
:1024B000B9FB0346254C2649C0B22370FEF732F91A
:1024C00020780121FEF7EAF80E20FEF719F940BB4B
:1024D000204B0125C3E90000FEF716FE0446FFF776
:1024E00011F84FF0FF3E6FF0004C10F57A7241F199
:1024F000000396457CEB03014FF000012046164C8B
:102500003CBF72466346CDE901150094FEF700FE1C
:102510000028C0DB01211148FFF72AFC012005B08B
:1025200030BD0120FEF776F801460A48FEF7D6FBDB
:1025300000220E200A49FEF725F9EBE7FEF7B2FB71
:10254000B4E700BFBC4D0010841C0020AA1C002072
:10255000A9230010501C00205D210010B40E0020A3
:10256000CD21001000487047344D001000487047DE
:10257000E04C001038B5184B04461A780AB344B939
:1025800040F209424FF44173144D6A8013482B8086
:1025900038BD052C1AD8124B104D53F8241028467C
:1025A0000023013903E0132B20F8022F10D011F87B
:1025B000012F0133DBB2002AF5D15B0043F44073F5
:1025C000E4E71121184600F025F8D8E7002038BDCF
:1025D0004FF44A73DAE700BF941C0020F417002080
:1025E000C84C001000B545F247308BB0FFF780F9BA
:1025F00001220346092101A89847DDE90332044975
:1026000012BA1BBAC1E900230BB05DF804FB00BF8E
:10261000781C0020012901F1FF3300F0B3805D49EF
:102620000A784FEA121C9F2A8CBF0CF1370C0CF170
:10263000300C012B80F800C000F0A78002F00F02E0
:10264000092A8CBF37323032022B427000F09D8055
:102650004A784FEA121C9F2A8CBF0CF1370C0CF100
:10266000300C032B80F802C000F08F8002F00F02C4
:10267000092A8CBF37323032042BC27000F08580BB
:102680008A784FEA121C9F2A8CBF0CF1370C0CF190
:10269000300C052B80F804C077D002F00F02092A15
:1026A0008CBF37323032062B42716ED0CA784FEA77
:1026B000121C9F2A8CBF0CF1370C0CF1300C072B2D
:1026C00080F806C061D002F00F02092A8CBF3732B1
:1026D0003032082BC27158D00A794FEA121C9F2A57
:1026E0008CBF0CF1370C0CF1300C092B80F808C0B2
:1026F0004BD002F00F02092A8CBF373230320A2B3E
:10270000427242D04A794FEA121C9F2A8CBF0CF1C8
:10271000370C0CF1300C0B2B80F80AC035D002F0CE
:102720000F02092A8CBF373230320C2BC2722CD0E8
:102730008A794FEA121C9F2A8CBF0CF1370C0CF1DE
:10274000300C0D2B80F80CC01FD002F00F02092AAC
:102750008CBF373230320E2B427316D0CA79110932
:102760009F2A8CBF373130310F2B81730DD002F08F
:102770000F02092A94BF30323732102BC27318BFB0
:10278000103002D0002303707047184400230370F8
:10279000704700BF781C002070B500F02BF90C23A7
:1027A00040251B4CFF220E201A49A367FDF7EAFFC4
:1027B000194B002118462A4601F09EFF03460021CE
:1027C00080200126154A58849A60843A59605E70C8
:1027D0001D831D87C2F88410C2F8801002F5807234
:1027E000DA60DA62803A83F8211083F83B1059628C
:1027F0009A6202F089F84FF000504FF48032084995
:10280000084B2664E064C4F89010DA6470BD00BF21
:1028100000001150AD0300202C180020840010503F
:1028200010D001000020115001210E20FDF736BF0D
:1028300000220248114600F0FDB800BF4C180020ED
:10284000044B197021B14FF40032034BC3F89020B0
:10285000704700BFA61C0020002011500B785B06BB
:1028600002D14B78052B00D070474B88014ADBB270
:1028700013607047000011504FF0000C2DE9F0413B
:102880008878354D00F07F025600CF788B8806EBB4
:10289000D01105EB4111C4098870C7F30100C87657
:1028A000C3F30A0384F0010081F803C00B8348706E
:1028B00007F00307D10084BB2848043105EB821ED2
:1028C00001EB0008CEF8088041F800C082B324492B
:1028D000D2001144CEF8041022483F33016823F09F
:1028E0003F03022F204A08BF5B000B44036081EACC
:1028F00002085340321905EB4212B3F5805FD160F4
:1029000027D8264405EB46156B6848EA876242F0F3
:10291000004201201A60BDE8F081DFF840E010B20B
:10292000714405EB8218C8F828104EF830C042B93F
:1029300000230E4A05EB44140120E2606360BDE809
:10294000F081D20002F1A04202F58012C8F82420E2
:10295000C2E7FFF717F8D4E72C18002080001050CA
:1029600004001050341C00200000105000011050D2
:1029700001F0CABF8C4608B5114607481A460CF04C
:102980007F034FEADC1C0CEB430C00EB4C1000F017
:1029900051F8012008BD00BF2C180020CB0911F010
:1029A0007F0103D1064AC3F102009066054803EB9C
:1029B00041034FF40062002100EB431001F0A8BF77
:1029C000002011502C18002011F07F0300D1704717
:1029D000002210B4C809064C00EB430004EB40137E
:1029E0006FF4006118465DF8044BDA7001F090BF97
:1029F0002C1800204FF0805209480A4908B50A4BAC
:102A000002600A609968C94311F08051FAD14FF40D
:102A10008052064801F070FE0922054B5A6708BD36
:102A20000020024000300240000002400000105030
:102A30000000115000234FF0010C10B580F81AC0AF
:102A40008282C3820161044601F05AFF20B14FF433
:102A50000032074BC3F89020204601F061FF10B10F
:102A60000123237710BD2046BDE8104001F040BF90
:102A7000002011502DE9F04100241D4E054623464B
:102A80003278DFF878801B4F0DE03B6813EB44137E
:102A900025D0DB682846984732780134E4B2511CCF
:102AA000A142234606DBA242A3EB0203EDD808EBCA
:102AB0004313EEE7104C54220021204601F01CFE87
:102AC0004FF0FF33251D6360C5E90133EB6004F16E
:102AD00014002022BDE8F041FF2101F00DBE4FF0AF
:102AE000E023D3F8F03DDB0700D500BEBDE8F08160
:102AF000A51C002048130020CC130020484D0010D6
:102B0000704700BF704700BF00207047002070472B
:102B1000704700BF704700BF704700BF704700BFDD
:102B2000024B5878003818BF01207047CC130020A2
:102B3000024B1878C0F38000704700BFCC13002010
:102B40002DE9F8432C4F3B78FF2B02D00120BDE844
:102B5000F883002154220646284801F0CDFD0022CA
:102B6000274C284B20461A70FEF79CF8264B274826
:102B70001C60274CFEF7A4F8204601F083FD254A8F
:102B8000254B264D146063B32846FFF7C9FA244B42
:102B90002A7818600024DFF88C902346DFF88080C4
:102BA0000EE0D8F8003013EB441311D05B687BB112
:102BB00098472A780134E4B2511CA142234612DB23
:102BC000A242EED89B1A09EB43135B68002BEFD1AE
:102BD0004FF0E023D3F8F03DDB0700D500BE002026
:102BE000B5E72A78D6E730463E70FFF7D5FD304688
:102BF000FFF71AFEAAE700BFE80E0020CC13002062
:102C000084130020A71C002020140020E00E0020C8
:102C1000CC0E00202414002021210010A51C00202F
:102C200048130020484D00102DE9F04FDFF8C892FE
:102C30008BB099F80030FF2B00F0F180A84CA94D23
:102C4000DFF8B0A2DFF8B4B226687369EFF3108240
:102C500072B6D3E8CF0F01210028FAD1C3E8401F94
:102C60000028F6D1BFF35F8FB261304607A901F0AB
:102C700057FB00237269C2E88F3FB36983F3108862
:102C8000002800F0CC809DF81D30013B072B00F29E
:102C90007D83DFE803F0A7B1959D8E350A04089B7C
:102CA000002BD1D009989847CEE79DF8201001F06D
:102CB0007F0605EB460000EBD11090F8343023F08E
:102CC000010380F8343090F8343023F0040380F8A6
:102CD0003430002E00F0A680037D9AF80020934245
:102CE00080F09380804A126812EB431300F09080CA
:102CF0009E699DF82120099B9DF81C00B047A3E721
:102D00009BF80030002B00F083809BF80030013BE3
:102D1000DBB28BF800309BF8003003F0FF00002B93
:102D200092D1704F9DF81C803B7843F001033B70BB
:102D300097F8343060F3000387F8343097F8343074
:102D400060F3820387F8343097F8353060F300037E
:102D500087F8353097F8353060F3820387F83530DF
:102D600000F06AFC9DF8203003F06002602A6CD00D
:102D7000402A7CD003F01F03012B00F0C180022BFE
:102D800000F08180002B60D1202A00F0E981002A28
:102D90005BD19DF82130092B57D8DFE813F0B00143
:102DA000A2015600C101560095016B015600600159
:102DB000F4002B78D9077FF547AFFFF7AFFE43E765
:102DC000EB78DA077FF540AF0898FFF79BFE3BE70B
:102DD0002B78D8077FF538AF2878C0F3C000FFF70D
:102DE0009BFE31E79DF81C00FFF744FE00F01AFC43
:102DF0009DF82030AB7027E79DF81C00FFF73AFEE6
:102E000000F010FCFFF786FE1EE7501C984211DA16
:102E10004FF0E023D3F8F03DDC0700D500BE0BB047
:102E2000BDE8F08F099B9DF821209DF81C0000F063
:102E300017FC09E79B1A2D4A02EB431358E7FFF7EB
:102E400095FB0246002840F082814FF0E023D3F842
:102E5000F03DDE0700D500BE9DF81C000021FFF705
:102E60009DFD80219DF81C00FFF798FDECE62048B1
:102E700000F0E2FB0121404608AAFFF73DF90028D7
:102E80007FF4E2AEE8E79DF8241011F0700FDCD17A
:102E900001F07F0607EB4600164B00EBD1101B78C4
:102EA000007D7600019698424FEAD116009659D3DC
:102EB0005E1C8642C0F26681C01A0C4B03EB4016C2
:102EC000002A00F06381706900F0B6FB01214046E2
:102ED000736908AA984700287FF4B6AEBCE700BF24
:102EE00024140020CC13002048130020484D00106B
:102EF000F9200010A51C0020E80E0020A71C0020CF
:102F00009DF824300F2BA7D8AE4A3B441B7912788A
:102F1000934232D3511C99429EDBAB4E9B1A06EB77
:102F20004316706900F088FB01214046736908AAC6
:102F3000984700287FF488AE9DF8203013F0600693
:102F40008AD19DF821300A3B012B85D800F074FB13
:102F50009DF821300A2B00F0F281404608A900F0CC
:102F6000F1FA71E6994B1B6803EB4016002A00F05A
:102F70000D81002E3FF470AFA5E7944A166816EB5A
:102F80004316CED168E77B789DF822609E4200F020
:102F90004F817B78002B40F0BE817E70002E00F0C8
:102FA0004581701EC0B2FFF7E1FA0346002800F029
:102FB0005F814278022A40F05B81C17903F1090602
:102FC000C1F340121201C1F3801142EA41123146AD
:102FD000387820F0300002433A705A88CDF80C80DF
:102FE0009A180192019B8B4240F2A4814A780B2AE5
:102FF00000F0AF810123042A40F03A810026019AB3
:103000000096521A92B202926E4A049312781DE010
:103010006E4B1B6813EB461800F02A81029AD8F811
:10302000103003980591984708280246059906F143
:10303000010303D90298904280F0FF80DEB2614B19
:1030400000961A78531C9E4200F31281009BB242F4
:10305000A3EB0202DCD85C4B03EB4218DEE77B7883
:1030600040468DF81A300DF11A02012308A900F02C
:1030700083FAE9E5BDF82200030A013B020AC0B267
:103080000E2B3FF6E9AE01A151F823F0A13200105A
:103090003D310010DD320010592E0010592E001065
:1030A000BF3200103D310010592E0010592E001073
:1030B000592E0010592E0010592E0010592E0010B4
:1030C000592E00109332001008A800F0BBFA4046B9
:1030D0009DF82210FFF7ACFB3B7843F002033B70F6
:1030E000B2E5BDF82230012B7FF4B6AE3B78404606
:1030F00023F0080308A93B7000F024FAA4E5404639
:103100003B789A0802F00202C3F340131343ADF870
:103110001A300DF11A02022308A900F02DFA93E5E6
:10312000BDF82230012B7FF497AE3B78404643F048
:10313000080308A93B7000F005FA85E5022A3FF470
:103140007EAEFFF7E3FC024600283FF485AE404622
:10315000538808A900F010FA00287FF475AD7BE6CB
:103160009DF824300F2B3FF677AE164A3B441B796F
:10317000127893421DD2154A166816EB43167FF457
:10318000A2AE69E6002A7FF467AE00269DF82120F2
:1031900002F0FD03012B1BD0002A7FF456AE019BE9
:1031A000009A3B44134493F834304046C3F3400341
:1031B000ADE7511C9942FFF64FAE034E9B1A06EB4A
:1031C000431680E6A51C0020484D0010481300203F
:1031D000BDF82230B3B9012A99F8000000F08680CA
:1031E000FFF7DCFB019B009A3B44134493F8342027
:1031F00042F0020283F8342093F8342042F00102B6
:1032000083F83420002E3FF41FAD706900F014FAEB
:103210007369012108AA40469847002000F00CFA83
:1032200097F83530DF073FF50FAD96E6FFF772FCF4
:10323000404608A900F086F906E5049B012B00F042
:103240009E80002B00F08A80002091F8028005E02B
:103250008CF804605FFA80FC63457FD908EB000CB2
:1032600057FA8CFC9CF804E00130BEF1FF0FEFD060
:103270004FF0E023D3F8F03DDA0700D500BE4FF061
:10328000E023D3F8F03DDB0700D500BE00237B70C0
:10329000E2E5FEF72DFF024600287FF458AFDBE59C
:1032A000FFF760F9024600283FF4CFAD40461223F5
:1032B00008A900F061F900287FF4C6ACCCE5FFF75F
:1032C00023FC024600283FF4C7AD4046137808A906
:1032D00000F052F900287FF4B7ACBDE5BDF824102A
:1032E000FFF748F902460028EFD1B5E50293FFF752
:1032F0006BFB019A009B3A441A4492F83410029BEB
:1033000063F3410182F8341092F8341063F3000142
:1033100082F8341076E700214046FFF791FA4046E4
:10332000FFF726FBBB7840460093FFF7A3FB009B0B
:10333000BB7032E6DDF80C80FFF7EAFB78E7404629
:10334000012308A90DF11A028DF81A6000F014F992
:103350007AE40A78CB7811444A784CE63346104830
:103360000492029100F052FE0E4B049A02991B78CF
:103370001144009A01339342BFF634AE78E7D8F88F
:1033800010C00948844508BF02235DE74FF0E023E1
:10339000D3F8F03DDB077FF557AC00BE54E400BF27
:1033A000E0130020A51C0020653A00102DE9F84F1D
:1033B000DDF82880002A3FD00C461E4615464FF007
:1033C000000B1F4FDFF87C9017E0204699F80210A1
:1033D00000F0EAFDF8B121465046FFF74DFA08B378
:1033E000A3780BF1010BDA0916BF0B9A88F80030AD
:1033F00013702378AB451C441ED06378052B11D184
:10340000E17801F00301B1420CD1A37897F800A054
:1034100013F0700FD9D04FF0E023D3F8F03DDA0766
:1034200000D500BE4FF0E023D3F8F03DDB0700D518
:1034300000BE0020BDE8F88F0120BDE8F88F00BF76
:10344000E80E0020CC13002038B50E4B1D788B7889
:1034500013F0700F08D04FF0E023D3F8F03DDB07F6
:1034600000D500BE002038BD074B0C4608469978B1
:1034700000F09AFD0028EED021462846BDE83840ED
:10348000FFF7FAB9E80E0020CC1300200B46064ADD
:1034900006481168DA09343203F07F0302EB430374
:1034A000184400F03BBD00BF20140020CC130020C6
:1034B0000B46064A06481168DA09343203F07F03E6
:1034C00002EB4303184400F053BD00BF201400205A
:1034D000CC13002010B5194C01F07F0E04EB4E0404
:1034E00004EBD11494F834C015481CF0010F04F11A
:1034F0003004007808D04FF0E023D3F8F03DDA072D
:1035000000D500BE002010BD94F804C04CF0010CA2
:1035100084F804C0FFF72EFA0028F4D14FF0E02120
:10352000227960F300022271227960F38202227113
:10353000D1F8F03DDB07E5D5E3E700BFCC13002071
:10354000E80E002030B50B4C8C46A64605460868B0
:1035500049680023AEE803009CF800102846C943E0
:10356000C4E90233BDE830401A4601F08001FFF79C
:10357000B1BF00BF501300202DE9F041274F4FF09D
:103580000008BE468C46064608684968BA60AEE840
:103590000300A7F80E801546BCF80620934228BF0A
:1035A0001346BB819AB11C462BB3DDB197F90030AD
:1035B000402C28BF4024002B28DB414623463046C0
:1035C000174AFFF787FF68B10120BDE8F0819CF83A
:1035D00000101346C943304601F08001FFF77AFF1F
:1035E0000028F1D14FF0E023D3F8F03DDB0700D500
:1035F00000BE0020E9E71A46397801F08001234631
:103600003046FFF767FF0028DED1EBE72246294668
:10361000034801F0C3F88021014AF0E7501300206D
:103620008C1300200022034BC3E90022C3E90222CD
:103630001A61704750130020014B1861704700BF9A
:103640005013002030B40246044C00252346006885
:103650005168C4E9025530BC03C3704750130020C1
:1036600070B53C4CC90922780646B1EBD21F1D4605
:1036700082B017D053B14FF0E023D3F8F03DDB0711
:1036800002D4002002B070BD00BEFAE72146FFF769
:10369000E5F823691BB122460321304698470120F3
:1036A00002B070BD94F90030A068002B05DB002843
:1036B000E7D02A46284901F071F8E089A168E3883B
:1036C000284480B229448342E081A16016D03F2D76
:1036D00014D9A28994F90040131A9BB2402B28BF39
:1036E0004023002C26DB90424FF0000130D01A4AD4
:1036F0003046FFF7EFFE0028D1D1BCE7236923B1A4
:1037000002213046134A984758B121780023C94313
:1037100030461A4601F08001FFF7DCFE0028BED1DA
:10372000A9E701463046FFF739F980213046FFF717
:1037300035F9B4E7904208D01A460748019301F0E2
:103740002DF88021044A019BD2E780210022CFE797
:103750000A46CDE7501300208C13002070B50446B4
:10376000FFF7DEF900B970BDFFF7E2F90546002862
:10377000F9D1E378002BF6D004F11006304600F0C2
:10378000BDFD3F28EFD92846E178FFF77FFE0028EE
:10379000E9D0304600F0B2FD3F2808D92846E1784C
:1037A00004F512724023BDE87040FFF793BE28462F
:1037B000E178BDE87040FFF77BBE00BF10B504465E
:1037C000FFF7AEF908B9002010BDFFF7B1F90028E6
:1037D000F9D14FF43272034B02FB0433187900F035
:1037E000010010BDF80E00204FF4327208B5034BF3
:1037F00002FB003000F068FD08BD00BF080F00208C
:103800002DE9F8434FF6FF744FF43273A24228BFFC
:10381000224603FB00F41D4F04F110053D442846E9
:1038200092B200F0C7FD0646FFF77AF910B93046AC
:10383000BDE8F883FFF77CF981460028F7D107EB54
:10384000040898F80330002BF1D0284600F056FD0C
:103850003F28ECD9484698F80310FFF717FE0028D8
:10386000E5D0284600F04AFD3F2809D904F5127238
:103870004846402398F803103A44FFF72BFED6E75A
:10388000484698F80310FFF713FED0E7F80E002023
:103890002DE9F0410446FFF743F910B90020BDE8D7
:1038A000F081FFF745F906460028F7D14FF432734F
:1038B00003FB04F4DFF8608004F124054544284646
:1038C00000F002FD0028E9D008EB04073046B97883
:1038D000FFF7DCFD0028E1D004F5227444442846BB
:1038E0004022214600F066FD054680B1034622468F
:1038F0003046B978FFF7EEFD38B94FF0E023D3F842
:10390000F03DDB07CAD500BEC8E72846C7E7B9784F
:10391000FFF7CEFDC2E700BFF80E002038B54FF626
:10392000FF754FF43273AA4228BF2A460A4C92B25E
:1039300003FB00440546204600F0F8FD0346204600
:103940001C4600F0C1FC3F2801D8204638BD28465F
:10395000FFF79EFF204638BD1C0F00204FF4327247
:1039600008B5034B02FB003000F0C8FC08BD00BFE7
:103970001C0F0020F0B51B4C83B04FF432720021B5
:10398000204600F0B9FE0025FF234FF4E131082264
:10399000154804F50E770570009504F11000637169
:1039A000A160A27304F1380101234FF4807200F08A
:1039B0005BFC01234FF4807204F59C71009304F1C9
:1039C000240000F051FC04F510763846FDF76AF942
:1039D0003046FDF767F9C4E90757C4E90C6503B041
:1039E000F0BD00BFF80E00204C130020094B196BEE
:1039F00049B11A6A12B10022C3E907220022C3E9C1
:103A00000C22012070471A6A002AFAD00120C3E96B
:103A100007117047F80E0020002210B50E4C0F4819
:103A2000237802600271DA0707D59B070BD5BDE842
:103A3000104001210A4800F041BE103000F022FE83
:103A400023789B07F3D4064800F01CFEBDE8104025
:103A50000121034800F032BE4C130020F80E002074
:103A60001C0F0020F0B54B7983B0022B03D000254A
:103A7000284603B0F0BD8B79022BF8D1244FBB78D8
:103A80007BBB8B7806463B700B780925CC18617898
:103A900024290BD1082A02D81FE0AA421DD323787B
:103AA0001C4461782B4424299DB2F6D0052920D0EE
:103AB000042912D163790A2B0FD1164B2778019371
:103AC00001330093022330461A46E119FFF76EFCDA
:103AD00038B10E3517FA85F5ADB20D48FFF73EFE49
:103AE000C6E74FF0E023D3F8F03DDB07BFD500BEBB
:103AF000BDE721463046FFF7A7FC0028F1D0A378A8
:103B00007B7023781C442B4461789DB2D0E700BFC2
:103B1000F80E0020FA0E0020137803F06003202B2B
:103B20000ED170B5274C938894F800C09C4509D1FC
:103B30005378203B032B05D8DFE803F00C18200650
:103B400000207047002070BD01292ED0032930D0FD
:103B5000012070BD01290BD00329F9D11A4B002B8C
:103B6000F6D000201949FEF7E3FAF1E70129EFD179
:103B700011460723154AFFF7FFFCE9E7012914D096
:103B80000329E5D15588124805F0010686F00101A8
:103B9000257100F093FD0F4B002BD9D0314600204A
:103BA000C5F34002AFF30080D2E71146FFF7CAFC2D
:103BB000CEE7094B002BCBD000205188AFF300801B
:103BC000C6E700BFF80E002031210010000F0020D2
:103BD0001C0F002000000000000000002DE9F0474D
:103BE000374E0C46F27807468A421D4696F802C0C8
:103BF0003CD08C4513D04FF0E023D3F8F03DDB07E9
:103C000000D500BE0020BDE8F0872E4B23B12E4822
:103C100000F06AFB00284FD02948FFF79FFDB378DA
:103C2000A34202D00120BDE8F087284B13B1002049
:103C3000AFF300800020FFF72BFE0028F2D12448CC
:103C400000F042FB0028EDD1002DEBD015F03F0530
:103C5000E8D13846B178FFF719FC0028E2D02B46AE
:103C60002A463846B178FFF735FCDBE79AB206F50D
:103C7000127106F1100000F059FC164B002BC4D055
:103C80007379FF2BC1D0002DBFD006F2472808EB77
:103C9000050AA8F2372902E0C245B6D0737918F8B0
:103CA000012F9A42F8D1484600F01EFB0028F3D1BC
:103CB0007179AFF30080EFE7AFF30080ACE700BFAE
:103CC000F80E002000000000080F00200000000097
:103CD0001C0F00200000000070B5154C84B04FF49C
:103CE00033720021204600F007FD402600234FF4E8
:103CF0008075221D029204F5E6721946CDE9002571
:103D000003961A4604F5D47000F0ACF9002304F1D0
:103D1000440104F1A800CDE90216009001221946E1
:103D2000019504F1840000F09DF904B070BD00BF5E
:103D3000E814002010B5054C204600F0BFF9A4F5AA
:103D4000927000F0BBF9012010BD00BF901600205A
:103D5000002310B5054C04F5D870237000F092FCD8
:103D600004F18C00BDE8104000F08CBCE814002089
:103D70002DE9F84F4B79FF2B02D00020BDE8F88FDA
:103D80003A4D0E4695F8A9310C78002BF5D195F8EF
:103D90008570002FF1D18B780C442B700B79002BA0
:103DA0003ED0804604EB020B05F5D87A05F5D479B0
:103DB0006378052B09D0A34502D831E05C452FD2AA
:103DC00023781C446378052BF8D1A34528D92146D4
:103DD0004046FFF739FB00283FD0A378DB0923D109
:103DE000504600F04FFCA37895F8A81185F8A9314A
:103DF000A3884046C3F30A03A3F50073B3FA83F321
:103E00005B0963F3410185F8A811494600F0C4F944
:103E100018B32378317901371C44FBB29942C7D8D3
:103E2000A11B88B2BDE8F88F114800F02BFCA378E5
:103E300095F884C085F88530A3880E49C3F30A033A
:103E4000A3F50073B3FA83F35B0963F3410C00201D
:103E500085F884C000F068F9DBE74FF0E023D3F881
:103E6000F03DDB0789D500BE87E700BFE8140020DE
:103E7000741500206C15002070B51B4C064694F894
:103E8000A9C11D468C4512D094F885308B420CD1C7
:103E9000164B1BB10020A9B2AFF300803046144985
:103EA00000F042F9D0B1012070BD002070BDB4F81F
:103EB000B4315BB90F4B23B100200F49AAB2AFF365
:103EC000008030460D4900F067F9ECE7D4F8AC11FA
:103ED000AAB204F5D87000F029FBEBE72A46304679
:103EE000034900F0EDF8DEE7E814002000000000D0
:103EF0006C15002000000000EC140020901600203B
:103F000008B50020FEF71CFE00B108BD4FF0E0230D
:103F1000D3F8F03DDB07F8D500BE08BDF8B503784F
:103F200013F001041AD1037805465A07C3F380073A
:103F300001D52046F8BD0E464FF0FF31304600F067
:103F4000D3FC2B7813F001040BD12B785B0709D439
:103F50002B78012443F004032B7003E00024204657
:103F6000F8BD3C46304600F0C7FC2046F8BD00BF17
:103F700070B50C4605464FF0FF31204600F0B4FC0A
:103F80002B78C3F380065B0708D52B7813F0010369
:103F900011BF00262A7863F382022A70204600F0BF
:103FA000ABFC304670BD00BFC378828803F00300CD
:103FB0000228C2F30A021FD0032803D001280AD026
:103FC00000207047022914BF40234FF480639342BE
:103FD00009D301207047022940F2FF3308BF4FF494
:103FE00080639342F6D24FF0E023D3F8F03DDB0735
:103FF000E6D500BE00207047022902D0402AE8D949
:10400000F1E7B2F5007FE4D0EDE700BF0A4491424A
:1040100026D291F801C0BCF1050F05D091F800C07F
:1040200061448A42F5D8704700B591F802C00CF09F
:104030007F0E00EB4E0E4FEADC1C0EF80C3091F8B0
:1040400000C061448A4209D991F801C0BCF1050F52
:10405000EBD091F800C061448A42F5D85DF804FBCA
:10406000704700BF2DE9F0418E4682B0009390F872
:1040700000C0089EBDF824706EF3000C044615467F
:10408000012331463A4600F808CBBDF82C8000F0F9
:10409000EBF806B13FB901200A9BA4F802806360E7
:1040A00002B0BDE8F08104F11C063046FCF7FAFDD1
:1040B0000DB135460026C4E90556ECE701207047EE
:1040C000F8B50746084640F2FF13154610F8082BCE
:1040D0000C4612F0020F0CBF3F261E4600F0F4F80B
:1040E00028B925B12E4202D12378DA0701D5002064
:1040F000F8BD38466178FFF7C9F90028F7D0237872
:1041000013F0010307D04FF0E023D3F8F03DDB07B5
:10411000EDD500BEEBE71A4638466178FFF7DAF9CD
:104120000028F0D0F8BD00BF70B501F108050646C3
:1041300028460C4600F0C8F810B12378D80701D5FE
:10414000002070BD30466178FFF7A0F90028F7D055
:1041500028466288616800F02DF92378054648B149
:10416000D9070ED54FF0E023D3F8F03DDA07E7D5B5
:1041700000BEE5E7DB07E3D430466178FFF798F946
:10418000DEE70346626830466178FFF7A3F900284E
:10419000E8D0284670BD00BF8A892DE9F0410B7830
:1041A0000C4605468AB9DF0725D44978FFF76EF932
:1041B00008B322786388D6073FD54FF0E023D3F8C1
:1041C000F03DDA0717D500BE15E003F0020301F158
:1041D0000808002B40460CBF40274FF400774FF6ED
:1041E000C07618BF4FF47E4600F088F8874202D8A8
:1041F0002378D80702D50020BDE8F08128466178F1
:10420000FFF744F90028F6D0404600F077F88742DF
:104210001FD823786288D907CFD43040904228BF76
:10422000104661780646E0B1626833462846FFF7DB
:1042300051F90028C1D03046DEE761783BB16268B1
:104240002846FFF747F90028B7D06088D4E71A4618
:10425000F6E72378DB07CED428466178FFF728F904
:10426000C9E70246E1E700BF2DE9F041B2F5004F92
:104270009DF8188024D80446C06817460E461D468F
:1042800018B14FF0FF3100F02FFB206918B14FF04B
:10429000FF3100F029FB0022C5F30E03E06843EA7A
:1042A000C83362812660A780E380228108B100F0D4
:1042B00023FB206908B100F01FFB0120BDE8F0815D
:1042C0000020BDE8F08100BF038942899BB292B211
:1042D0008088934236BFC2EB40029B1A9B189BB268
:1042E000984228BF184670470289438990B29BB212
:1042F000C01AB0FA80F04009704700BF03894289B4
:104300009BB2808892B2934236BFC2EB40029B1AA6
:104310009B189BB2984286BFC01A80B2002070479B
:1043200038B5044600690D4618B14FF0FF3100F072
:10433000DBFA2189638989B29BB2A288994236BF90
:10434000C3EB4200C81A401880B250B3824209D26F
:1043500091422CBF891A89188BB29A42638103D883
:104360009B1A9BB29A42FBD9E2882168C2F30E02E3
:1043700002FB0311284600F011FA6189012589B278
:104380004B1C9BB29942A2880ED9002302FA05F178
:104390005B1A9BB22069638108B100F0ADFA284630
:1043A00038BD054663899BB2B3EB420F4FEA420129
:1043B000F0DBEDE72DE9F0470646006988469146B7
:1043C00018B14FF0FF3100F08FFA338974899BB236
:1043D000A4B2B588A34236BFC4EB45071F1BFF1824
:1043E000BFB2002F4AD0BD4240D3B94528BFB9461D
:1043F000A5421FFA89F703D8641BA4B2A542FBD9D2
:10440000B6F806A02B1B31689BB2CAF30E029F427E
:10441000924602FB041123D913FB02F31FFA83F91E
:104420004A4640467D1B00F0B9F9621912FB0AF2B8
:10443000316808EB090092B200F0B0F97289B588D2
:1044400092B2D3199BB29A421AD96A009B1A9BB2B4
:104450003069738108B100F04FFA3846BDE8F08743
:10446000404607FB02F200F099F9E7E7AB422CBFA8
:104470005B1B5B199CB22F467481B6E773899BB2B4
:10448000B3EB450F4FEA4502E2DBDFE7F8B5044640
:10449000C0680E4618B14FF0FF3100F025FA2589AB
:1044A000238961899BB289B2A2888B4236BFC1EB56
:1044B00042015B1A5B189BB29A42ADB208D8E77909
:1044C000FF0905D1E06808B100F016FA3846F8BDDA
:1044D000954219D32B469B1A9BB29342FBD2E2889A
:1044E0002068C2F30E0202FB0300314600F056F9C9
:1044F0006B1C9BB29D42A28812D9002351005B1A0B
:104500009BB201272381DDE7E2882068C2F30E0217
:1045100005FB0200314600F041F90135A288ABB23B
:10452000B3EB420F4FEA4201EBDBE8E72DE9F04F36
:10453000164683B0002A4CD00546C068884618B19C
:104540004FF0FF3100F0D0F9EA792F896989D2095B
:10455000AB88BFB289B240D18F4236BFC1EB4301B5
:10456000791AC91989B2994241D2591A89B28E422F
:1045700028BF0E46B5F806A007EB0609A6EB030B0D
:10458000CAF30E0A1FFA89F91FFA8BFB9F423C46B9
:1045900003D3E41AA4B29C42FBD21B1B28689BB233
:1045A000B3420AFB04004BD341460AFB06F200F07B
:1045B000F5F8AA884F454FEA420302D8B9EB420FFB
:1045C00003DBA9EB03031FFA83F9E868A5F8089059
:1045D00088B9304603B0BDE8F08FB5F806A09E421A
:1045E000CAF30E0A0DD3002B3FD11E4600E0002671
:1045F000E8680028EDD000F07FF9304603B0BDE850
:10460000F08F8F4236BFC1EB43027A1AD21992B2B1
:1046100058003244A6EB030B82421FFA8BFB0ADBE5
:1046200001EB03091FFA89F9A9EB0607BFB2B942EA
:1046300018D9381A87B206EB07091FFA89F9A5E7D6
:1046400013FB0AF35C4414FB0AF49AB2414601924C
:1046500000F0A4F8019A286808EB0201A2B200F069
:104660009DF8A6E7B84291DCE3E7F61A01EB0309EF
:104670000AFB06880F461E464FF0000B1FFA89F909
:1046800084E700BF10B50446C06818B14FF0FF3191
:1046900000F02AF9206918B14FF0FF3100F024F939
:1046A0000023E0686381238108B100F025F92069C7
:1046B00008B100F021F9012010BD00BF38B5044653
:1046C000C0680D4618B14FF0FF3100F00DF92069B8
:1046D00018B14FF0FF3100F007F9E379E06865F3B6
:1046E000C713E37108B100F007F9206908B100F0C1
:1046F00003F9012038BD00BF70B5860747D0541EAE
:10470000002A3ED0CAB2034601E0013C39D303F887
:10471000012B9D07F9D1032C2CD9CDB20F2C05EB21
:10472000052505EB054535D9A4F1100C03F1100E54
:104730001A462CF00F064FEA1C1CB644C2E900557D
:10474000C2E9025510327245F8D10CF1010214F0A1
:104750000C0F04F00F0C03EB021213D0ACF10403A6
:1047600023F003030433134442F8045B9342FBD168
:104770000CF003042CB1C9B21C4403F8011BA34282
:10478000FBD170BD64461346002CF4D1F9E7034613
:104790001446C0E71A46A446E0E700BF844641EA53
:1047A000000313F0030349D1403A23D30B6803609D
:1047B0004B6843608B688360CB68C3600B6903619F
:1047C0004B6943618B698361CB69C3610B6A036287
:1047D0004B6A43628B6A8362CB6AC3620B6B03636F
:1047E0004B6B43638B6B8363CB6BC3634030403154
:1047F000403ADBD230320BD30B6803604B68436026
:104800008B688360CB68C36010301031103AF3D2EC
:104810000C3205D351F8043B40F8043B043AF9D27A
:10482000043208D0D2071CBF11F8013B00F8013B4D
:1048300001D30B8803806046704700BF082A13D35A
:104840008B07B1D010F00303AED0C3F10403D21A2A
:10485000DB071CBF11F8013B00F8013BA4D331F882
:10486000023B20F8023B9FE7043AD9D3013A11F802
:10487000013B00F8013BF9D20B7803704B78437091
:104880008B7883706046704720F0030110F00300BE
:10489000C0F1000051F8043B00F1040C4FEACC0CCD
:1048A0006FF000021CBF22FA0CF213434FF0010C10
:1048B0004CEA0C2C4CEA0C4CA3EB0C0222EA03024F
:1048C00012EACC1204BF51F8043B0430F4D0C2F118
:1048D000000102EA0102B2FA82F2C2F11F0200EB09
:1048E000D2007047F8B500BF5FF800F03D0200202D
:1048F0005FF800F0410B00205FF800F07502002027
:104900005FF800F0A10A00205FF800F0B10200207B
:104910005FF800F0FD0A00205FF800F0D1010020F0
:104920005FF800F0C90A00205FF800F011010020D4
:104930003D1A0010B1190010E5190010891A001075
:104940001D1A001039190010651A001025190010E1
:10495000590C0010691A001009100010811900107C
:10496000511A0010011A0010350600105D060010E3
:0849700019020010E5250010FA
:1049780053657175C3AA6E6369612066696E616C5F
:10498800697A616461000000416775617264616EF3
:10499800646F207072657373696F6E6172206F2027
:1049A800626F74C3A36F2E2E2E00000053657175BD
:1049B800C3AA6E63696120696E6963696164610095
:1049C8000A2A2A2A2050414E4943202A2A2A0A0024
:1049D8000A0000004E6F207370696E6C6F636B7312
:1049E8002061726520617661696C61626C650000A6
:1049F8004E6F20757365722049525173206172653C
:104A080020617661696C61626C650000486172645E
:104A18007761726520616C61726D20256420616C1C
:104A2800726561647920636C61696D65640000007A
:104A380048617264206173736572740052656C65B5
:104A480061736500626F6F74325F77323571303829
:104A580030000000302E3100322E312E30000000A0
:104A68007069636F3200000041746976696461643B
:104A7800655F3200466562202034203230323500CE
:104A88005541525420737464696E00005541525464
:104A9800207374646F7574005541525420737464A4
:104AA800696E202F207374646F757400555342200B
:104AB800737464696E202F207374646F75740000BA
:104AC800526173706265727279205069000000004B
:104AD8005069636F00000000426F617264204344B4
:104AE800430000005265736574000000556E6861EC
:104AF8006E646C65642049525120307825780A002C
:104B0800657020253032582077617320616C72659A
:104B180061647920617661696C61626C650000008E
:104B280043616E277420636F6E74696E75652078B3
:104B3800666572206F6E20696E61637469766520A0
:104B4800657020253032580006005250D3F0754267
:104B5800444A001006005250E182887F4C4A0010F7
:104B6800060052503ABCA9115C4A00100600525087
:104B7800ABB36053604A001006005250BBFF3CB60E
:104B8800684A001006005250861C0302704A001042
:104B9800060052505422A29D7C4A00100500525033
:104BA800DE65F468B85B00100D0A0000060052507C
:104BB80053B4F4A1A04A001008005250120000009B
:104BC80008005250921000000000000065200010FC
:104BD800000000006920001075200010A1200010BE
:104BE8009D200010000000000A00000000000306DD
:104BF800A6000800020002009C00140003005749A8
:104C08004E555342000000000000000000008000E4
:104C18000400010028004400650076006900630074
:104C2800650049006E00740065007200660061004E
:104C380063006500470055004900440000004E002D
:104C48007B006200630037003300390038006300DE
:104C580031002D0037003300630064002D0034005C
:104C68006300620037002D00390038006200380008
:104C78002D00390031003300610038006600630000
:104C8800610037006200660036007D000000000009
:104C9800050F2100011C100500DF60DDD88945C71C
:104CA8004C9CD2659D9E648A9F00000306A6000165
:104CB800000000000600525053B4F4A1B44A00109A
:104CC80000000000C84A0010D84A0010941C0020B8
:104CD800E04A0010EC4A0010090254000301008069
:104CE8007D080B0002020200000904000001020214
:104CF8000004052400200105240100010424020603
:104D080005240600010705810308001009040100B5
:104D1800020A00000007050202400000070582029F
:104D28004000000904020000FF0001051201100202
:104D3800EF0201408A2E0900000101020301000070
:104D48000000000075390010ED390010193A001004
:104D5800653A0010193B0010DD3B00100000000010
:104D680000000000D93C0010353D0010513D0010F6
:104D7800713D0010F9200010793E0010000000007D
:084D880014FAFF7F0100000096
:104D9000504B00105C4B0010684B0010744B00101F
:104DA000804B00108C4B0010984B0010A44B00104F
:104DB000C84B0010C04B0010B44B0010BC4C00108E
:104DC000034600B50268EFF3108C72B6D2E8CFEF5D
:104DD0000120BEF1000FF9D1C2E84E0FBEF1000F65
:104DE000F4D1BFF35F8F93F90420002A0ADB01B1ED
:104DF0000A60002000221B68C3E88F2F8CF3108804
:104E00005DF804FB4FF05042126801201A71F1E77F
:104E10004FF050412DE9F0410027044616461D464B
:104E2000D1F8008009E02368C3E88F7F8CF31088F5
:104E30003046294600F054FEF0B92168EFF3108C9B
:104E400072B6D1E8CF2F0123002AFAD1C1E8423F40
:104E5000002AF6D1BFF35F8F94F904E0BEF1000F92
:104E6000E1DA0023226884F80480C2E88F3F8CF3E3
:104E700010880120BDE8F0810020BDE8F08100BF6E
:104E800030B501460468EFF3108C72B6D4E8CFEF6A
:104E90000125BEF1000FF9D1C4E84E5FBEF1000F4D
:104EA000F4D1BFF35F8F90F90440002C11DB002197
:104EB0000568C5E88F1F8CF310884FF0504C9CF9A3
:104EC00000C0A44501D1084630BDBDE83040FFF721
:104ED0009FBF4FF05040006800230A680871C2E885
:104EE0008F3F8CF31088012030BD00BF70B50546A0
:104EF0000C4600F0E1FD02460B464FF47A704FF08D
:104F0000FF3E6FF0004CE4FB002396457CEB030171
:104F100038BF72462846BDE8704038BF6346FFF789
:104F200077BF00BF0368EFF3108272B6D3E8CFCF2C
:104F30000121BCF1000FF9D1C3E84C1FBCF1000FF7
:104F4000F4D1BFF35F8F4FF0FF0C0023016880F8AE
:104F500004C0C1E88F3F82F3108840BF704700BF94
:104F6000002108B5134B4FF4707299601248D96054
:104F7000196159619961D961196259629962D9625D
:104F8000196359639963D963196459649964D9643D
:104F9000196559659965D965196659669966D9661D
:104FA000196759679967D96700F08AFD034B044A6E
:104FB0001A6008BD000010506C180020341C00203E
:104FC000800110502DE9F04F214B85B09E6D0EB33E
:104FD000002401251F4F01E0202C1BD006EA050309
:104FE000621C2146AA46D4B26D00002BF4D00223E5
:104FF00004F001084FEA510913FB098B164B07EB2C
:105000004B1B5846C3F858A000F024FC28B936EAD8
:105010000A06E1D105B0BDE8F08F0022CDF80620E8
:10502000ADF80A204FF4E06208EB490307EB4313A5
:10503000ADF804209A78DB8A01A801218DF80820B8
:10504000039300F025FC584600F0AAFBDFE700BF01
:10505000000011502C18002000301150F0B5B84B52
:1050600085B0D3F8985015F400367BD0B54BB64CCC
:10507000996A94F83B30B54A022B116000F0118117
:10508000002694F87B30022B00F0EC8194F8BB30C2
:10509000022B00F0DD8194F8FB30022B00F0CE8172
:1050A00094F83B31022B00F0BE8194F87B31022B47
:1050B00000F0AE8194F8BB31022B00F09E8194F891
:1050C000FB31022B00F08E8194F83B32022B00F072
:1050D0007D8194F87B32022B00F06C8194F8BB3216
:1050E000022B00F05B8194F8FB32022B00F04A8126
:1050F00094F83B33022B00F0398194F87B33022B78
:1051000000F0E18094F8BB33022B00F0048194F8A6
:10511000FB33022B00F0EE803EB98D4B1B7823B998
:105120004FF400328B4BC3F8902000224FF44074B0
:10513000834B01219B6C01A8C3F30A03CDF8062021
:10514000CDF80A20ADF80E20ADF80440029300F02F
:105150009FFBEA064FF400367F4C07D5FFF732FF7E
:10516000264603E0EA064FF01004F7D4EB0331D5EE
:10517000754C46F48036A37E9BB10221774B704A72
:105180001966536E9F07FCD54FF4405200216E48BC
:1051900000F00CFB6C4800F003FB02226D4B5A66DA
:1051A0001A66012394F83A20E370F2B901234FF410
:1051B000C0616B4A84F82330019192E8030004AA8D
:1051C00002E90300194601A800F062FB4FF4003227
:1051D000604B1A65E9041DD46A0436D42B044AD402
:1051E000AE4240F0B78105B0F0BD5C4A1366A2F54F
:1051F0000052536ED807FCD54FF440520021594855
:1052000000F0D4FA574800F0CBFA0122514B5A660D
:105210001A66CBE700244A4B46F480561C60FFF721
:105220009FFE4FF48073012101A8ADF80430ADF862
:105230000E40CDF80640CDF80A4000F029FB4FF4AF
:105240000022444B1A656A04C8D500234FF48062DB
:10525000012101A8ADF80E30CDF80630CDF80A30A6
:10526000ADF8042000F014FB10223A4B46F48046BF
:105270001A652B04B4D500234FF4A062012101A8C4
:10528000ADF80E30CDF80630CDF80A30ADF8042078
:1052900000F0FEFA4FF400622E4B46F400461A6509
:1052A0009EE794F83A60002E3FF4EBAE94F83C3061
:1052B000002B3FF4E6AE002304F1200084F83C30DC
:1052C00000F096FADDE694F87A73002F3FF41AAFF7
:1052D00094F87C33002B40F0368194F8BB33022BDA
:1052E00023D194F8BA33DBB994F8FB33022B7FF463
:1052F0001CAF3E4694F8FA33002B3FF40DAF94F800
:10530000FC33002B3FF411AF0023174884F8FC3323
:1053100000F06EFA09E794F8BA33002B3FF4F7AEC9
:1053200094F8BC33002B40F0A78094F8FB33022B99
:105330007FF4FBAE94F8FA33002BE0D1F5E600BF22
:105340000000115000000B402C18002020180020F5
:10535000A61C002000301150100002000020115047
:10536000000010504C1800200C1C002094F83A73D8
:10537000002F3FF4C2AE94F83C33002B40F0DB80AA
:105380003E46BAE694F8FA72002F3FF4B1AE94F8B4
:10539000FC32002B40F0C7803E46A9E694F8BA7272
:1053A000002F3FF4A0AE94F8BC32002B40F0B38045
:1053B0003E4698E694F87A72002F3FF48FAE94F848
:1053C0007C32002B40F09F803E4687E694F83A728C
:1053D000002F3FF47EAE94F83C32002B40F08B80DF
:1053E0003E4676E694F8FA71002F3FF46DAE94F8DD
:1053F000FC31002B77D13E4666E694F8BA71002F57
:105400003FF45DAE94F8BC31002B64D13E4656E6C5
:1054100094F87A71002F3FF44DAE94F87C31002B54
:1054200051D13E4646E694F83A71002F3FF43DAE26
:1054300094F83C31002B3ED13E4636E694F8FA70A3
:10544000002F3FF42DAE94F8FC3063BB3E4627E6B8
:1054500094F8BA70002F3FF41EAE94F8BC30D3B964
:105460003E4618E694F87A70002F3FF40FAE94F899
:105470007C3043B93E4609E60023394884F8BC3302
:1054800000F0B6F951E70023364884F87C303E46F8
:1054900000F0AEF9FAE50023334884F8BC303E460C
:1054A00000F0A6F9F7E50023304884F8FC303E46CA
:1054B00000F09EF9F4E500232D4884F83C313E4687
:1054C00000F096F9F1E500232A4884F87C313E4645
:1054D00000F08EF9EEE50023274884F8BC313E4603
:1054E00000F086F9EBE50023244884F8FC313E46C1
:1054F00000F07EF9E8E50023214884F83C323E467E
:1055000000F076F9E5E500231E4884F87C323E463B
:1055100000F06EF9E2E500231B4884F8BC323E46F9
:1055200000F066F9DFE50023184884F8FC323E46B7
:1055300000F05EF9DCE50023154884F83C333E4674
:1055400000F056F9D9E50023124884F87C3300F0C6
:105550004FF9C2E6104886EA050100F0B5FA00BF2F
:10556000CC1B00208C180020CC1800200C19002027
:105570004C1900208C190020CC1900200C1A002096
:105580004C1A00208C1A0020CC1A00200C1B002082
:105590004C1B00208C1B0020F44A00102DE9F04326
:1055A000828A048B03469442C07828BF1446051EA5
:1055B00018BF012580F00100121B5E78D87092B2EE
:1055C00044F480609A8240EA453006BBDD6804F10D
:1055D000FF3805EB811C1D69ACB1B8F1050F05F171
:1055E000010203D9ACEB0207022F17D80CF1FF3CE4
:1055F000254400E0013212F8016CAA420CF8016F58
:10560000F8D11D699A8A25441D6140F400400AB909
:1056100040F4804001B10004BDE8F0832F46E64627
:105620003246261FB608013657F8049B01329642CF
:105630004EF8049BF8D8B4EB860FA8EB860205EB76
:10564000860E0CEB8607DCD015F826500CF8265099
:10565000002AD6D09EF80150012A7D70D1D09EF844
:105660000220BA701D699A8ACDE700BF836802469E
:10567000186801B1000C5378C0F3090013B3F0B5FA
:10568000D2E903548F0105EB8113461E78B1052E34
:1056900004D901373D44651B022D1CD8611E1D181D
:1056A00013F8014B9D4201F8014FF9D11469D38AD7
:1056B00004440344D382138B1461834284BF0023C8
:1056C0009382F0BDD38A0344D382138B834284BF79
:1056D0000023938270479E4625460021A0F1040CCA
:1056E0004FEA9C0C0CF1010C5EF8047B0131614522
:1056F00045F8047BF8D3B0EB8C0FA6EB8C0603EBDC
:105700008C0504EB8C01D1D013F82C3004F82C302C
:10571000002ECBD06B78012E4B70C7D0AB788B703E
:105720001469C4E710B50446836800211B68FFF7BD
:105730009DFF63681B685B0002D5238B834200D00A
:1057400010BD2046BDE810400121FFF78FBF00BF0C
:10575000084B1B6C13F0020302D18278D20901D1ED
:1057600000207047C07EA0F10200B0FA80F040092E
:10577000704700BF0000115008B5FFF7E9FF50B1B6
:10578000054A064B906A1B68A0F54870C01AC628E7
:105790008CBF0020012008BD00000B402018002015
:1057A0000023C0E904338376704700BF10B58368D7
:1057B00009B11C68214082B1114352050DD51A6808
:1057C00054050CD4084A21F480641C60126C9207C2
:1057D00003D40C23033BFDD28368196010BD81788C
:1057E000024800F071F900BF00001150084B001092
:1057F00030B54368002183B004461D68FFF7CEFE34
:10580000134B40F480521B6C13F0020FA3780ED0A0
:105810005B060ED025F0A04545F00055002120463E
:1058200063681D6003B0BDE83040FFF7BFBFDB0910
:10583000F0D0A38A002BEDD0012120460192FFF782
:10584000ADFE019A25F00055024345F0A045E5E77D
:105850000000115038B5857E044695B1FFF762FF10
:10586000A38A0BB9284638BD2046FFF785FF20B133
:10587000012323770025284638BD2046FFF7B8FFCF
:10588000F8E78178014800F01FF900BF284B0010AD
:105890002DE9F04343788146023B0D4685B0042B49
:1058A00013D8DFE803F0034A6A73440000217B4BFE
:1058B0001A7822F001021A701A7822F002021A7085
:1058C00059701A7861F382021A70754B1C6863690B
:1058D000EFF3108272B6D3E8CF0F01210028FAD17E
:1058E000C3E8401F0028F6D1BFF35F8FA26149468D
:1058F000204600F0F1F800236269C2E88F3FA369F7
:1059000083F3108848B94FF0E023D3F8F03DDB076C
:105910000AD500BE05B0BDE8F0832A4699F801100B
:1059200099F8000000F0D4F805B0BDE8F0835D4AB6
:1059300013780133DBB21370C7E700245A4E2346B5
:105940003178DFF86C81594F11E03B6813EB441359
:1059500007D0DB692BB1D9F8041099F800009847FB
:1059600031780134E4B24A1CA242234617DBA1423B
:10597000EBD85B1A08EB4313EBE7484B1A78D607D2
:10598000D2D51A7842F004021A709EE7434B1A7877
:10599000D407C9D51A7822F004021A7095E73F4C53
:1059A000237858073AD4E378DA07BDD503230026D5
:1059B0003B4A99F800101468D9F804208DF80410B7
:1059C0008DF805306369CDF80660CDF80A60ADF852
:1059D0000E600292EFF3108272B6D3E8CF0F01216E
:1059E0000028FAD1C3E8401F0028F6D1BFF35F8F2B
:1059F0002046A26101A900F06FF86369C3E88F6FC8
:105A0000A36983F3108800283FF47DAF2A469DF8F0
:105A100005109DF8040000F05BF885E72378002767
:105A200023F00403237005231D4A8DF80530166802
:105A300099F80020ADF80E708DF804207369CDF848
:105A40000670CDF80A70EFF3108272B6D3E8CF0F6C
:105A500001210028FAD1C3E8401F0028F6D1BFF386
:105A60005F8F3046B26101A900F036F87369C3E870
:105A70008F7FB36983F3108838B94FF0E023D3F8F0
:105A8000F03DD9078FD500BE8DE72A469DF8051059
:105A90009DF8040000F01CF885E700BFCC1300203F
:105AA00024140020A71C0020A51C0020481300205F
:105AB000484D0010000000005FF800F005150010D0
:105AC0005FF800F0F94600105FF800F0D90400100C
